:020000040800F2
:1000000038090020BD010008C32600089924000813
:10001000BF260008B71E0008D12E0008000000000F
:100020000000000000000000000000003929000866
:10003000A520000800000000552700084D2A0008F0
:10004000D7010008D7010008D7010008D701000830
:10005000D7010008D7010008D7010008D701000820
:10006000D7010008D7010008D7010008D701000810
:10007000D7010008D7010008D7010008D701000800
:10008000D7010008D7010008D7010008D7010008F0
:10009000D7010008D7010008D7010008D7010008E0
:1000A000D7010008D7010008D7010008D7010008D0
:1000B000D7010008D7010008D7010008D7010008C0
:1000C000D7010008D7010008D7010008D7010008B0
:1000D000D7010008B12A0008D7010008092B000841
:1000E000D7010008D7010008D701000800F002F886
:1000F00000F055F80AA090E8000C82448344AAF16D
:100100000107DA4501D100F04AF8AFF2090EBAE86A
:100110000F0013F0010F18BFFB1A43F0010318473B
:100120009C430000BC430000103A24BF78C878C14B
:10013000FAD8520724BF30C830C144BF04680C60ED
:10014000704700000023002400250026103A28BF35
:1001500078C1FBD8520728BF30C148BF0B60704739
:10016000662904F02D81642900F0B880632900F02D
:100170004084002070471FB59DE8030001F0B2F8ED
:1001800000F07EFC04000020002103F0C3FCE060CE
:1001900000F072FD1FBD10B500F0D7FD10BD00F0DE
:1001A0003FFE1146FFF7E7FF03F0CCFA01F02EF80F
:1001B00003B4FFF7F0FF03BC01F026FA09488047BB
:1001C00009480047FEE7FEE7FEE7FEE7FEE7FEE739
:1001D000FEE7FEE7FEE7FEE704480549054A064B51
:1001E00070470000512A0008ED0000083803002085
:1001F0003809002038050020380500200FB40449D4
:1002000010B503AA029800F001FC10BC5DF814FBC5
:10021000300200200FB41CB5074B06AA7B44694688
:100220000090059800F0C3FB0020694600F0D2FB67
:100230001CBC5DF814FB0000B507000070B5044657
:1002400085690068C10601D5302600E02026C00778
:1002500007D070BDD4E9012130469047206A401C88
:1002600020626D1EF6D570BD70B5044685690078B4
:10027000C00707D170BDD4E9012120209047206A32
:10028000401C20626D1EF6D570BD70B50C4605464B
:10029000012A05D02878800600D5EA69002302E00B
:1002A000012305E05B1C934202D2E05C0028F9D1F7
:1002B000A869E618C01AA861286A18442862284666
:1002C000FFF7BCFF04E0D5E9012114F8010B9047CA
:1002D000B442F8D32846FFF7C7FF70BD2DE9F041BF
:1002E0000646002410687529314616A510D0AFF3D4
:1002F0000080002802DA404213A507E031688A072F
:1003000001D512A502E0490704D511A5012401E099
:10031000AFF3008000210A2206F1240709E0B0FBB8
:10032000F2FCB0FBF2F302FB1C00303078541846AC
:10033000491C0028F3D123462A463046BDE8F04147
:1003400000F0C9B8000000002D0000002B000000E4
:10035000200000002DE9F05F894604464FF0000AB6
:10036000DFF824B1FB44C0F820A02046E1688847AC
:1003700000287DD0252806D0D4E901219047206AA5
:10038000401C2062F1E700255F462046E16888476F
:100390002028064607DB312E05D2B81910F8200CAC
:1003A00008B10543F1E7A80701D525F00405C4F815
:1003B0001CA00027C4F818A02A2E09D0304602F04D
:1003C0009DFD38B304EB8708303EC8F8186019E08B
:1003D00059F8041B204604EB87029161E1688847C5
:1003E000012F064618D1E069002820DA25F0200503
:1003F0001DE0D8F8180000EB800006EB4000303814
:10040000C8F818002046E1688847064602F076FDE5
:100410000028EED1012F0AD02E2E08D12046E16807
:1004200088477F1C0646022F45F02005C4DBA069E3
:10043000002803DA404245F00105A061E80701D039
:1004400025F01005A6B1A6F14100192802D82036E2
:1004500045F400654A463146204625604D46FFF783
:100460007FFE60B1012807D0ED1D25F0070000E0F8
:1004700007E000F1080978E705F1040975E730465F
:100480007AE7206ABDE8F09F5C4000004FF0000270
:100490000429C0F0128010F0030C00F0CB82CCF1E4
:1004A000040CBCF1020F18BF00F8012BA8BF20F804
:1004B000022BA1EB0C0100F0BDBA5FEAC17C24BFA6
:1004C00000F8012B00F8012B48BF00F8012B704702
:1004D0007047704770472DE9F0470D4699469246A0
:1004E000044600F124080168880604D5E06921F07B
:1004F0001001216000E00120A84201DD471B00E05F
:100500000027A1697A1902EB0900081AA061207876
:10051000C00602D42046FFF791FE002608E0D4E989
:1005200001211AF806009047206A401C761C2062C0
:100530004E45F4DB2078C0060AD52046FFF77EFE44
:1005400006E0D4E9012130209047206A401C206257
:10055000381EA7F10107F4DC07E0D4E9012118F8FF
:1005600005009047206A401C2062281EA5F1010565
:10057000F3DC2046FFF778FE2078000602D5022043
:10058000BDE8F0870120FBE770472DE9FF4F0C46DF
:100590001E464FF0FF378BB0D2E90001DDF86080D6
:1005A0000A908A46C1F30A5505B93D46002108461E
:1005B0004FF00000BAF1000F00F4400005DA00EB44
:1005C00080004FF4400101EA50004FEA9059B9F120
:1005D000010F00DDB9460A9850EA4A000ED044F6F1
:1005E0001050A5F2FF3545432F14B8F1000F1ED06F
:1005F0007542291E1EDDC9F100021CE0B8F1010F91
:100600004FF0000001D0302103E0F24305E0215417
:10061000401CB042FBDB30460022002121540B99E4
:10062000C1F80880C1E900200FB0BDE8F08FBD1B04
:100630006D1CDEE74A4600DA694206A800F0AAFA15
:1006400006AB93E8070003AB83E8070050460A991E
:1006500001F076F88DE80700A0F500501F380090F3
:100660000398002D09DD42F21F014A46084403A900
:100670000390684601F0D5FA08E0A0F500504A461C
:100680001F3803A90390684601F0DFFA8DE80700E0
:100690000004000C03D04FF0FF30410800E010468A
:1006A000B8F1000F03D00022009215461EE0751E1F
:1006B00005D400F0E9F9303262556D1EF9D5B34624
:1006C0000122084302D000227F1C04E02078302859
:1006D00001D100227F1E002A099786D01DE0112D2E
:1006E00007DA00F0D1F9303262556D1C50EA010290
:1006F000F5D1084302D00098C8B10EE00021681E71
:1007000005E0235C625C63542254401E491C814214
:10071000F7DBAB46A81B401E0990002004F80B0035
:100720000B98099AC0F80880C0E9002B7CE71126D5
:100730004FF0000859E72DE9F04F88460446D21DD6
:1007400022F0070191B0D1E90001CDE90A0102F0E0
:10075000C1FB02460B98C00F01D02D2007E0206896
:10076000810701D52B2002E0202101EAC000032AE5
:10077000099001D0072A05DB03464146204600F0D8
:10078000C9F90BE12078800601D5E06900E0062078
:10079000B8F1650F814606D0B8F1660F18D0B8F1F0
:1007A000670F70D131E00020B9F1110F009001DB2B
:1007B000112301E009F101030AAA01A90CA8FFF71E
:1007C000E4FEDDE90C70002609F10105834647E0EF
:1007D00001204B4600904FF000470AAA01A90CA83F
:1007E000FFF7D3FEDDE90DB00C995D46002610B988
:1007F00009F101000D18B9EB050003D4C0F1FF3673
:1008000009F10105A5EB09002BE0B9F1010F01DAAF
:100810004FF001090020B9F1110F0090484601DDA9
:10082000112300E003460AAA01A90CA8FFF7ADFEB8
:10083000DDE90C704D4600268346207800070AD477
:10084000AB4500DA5D4601A8012D04DD411911F820
:10085000011C302907D04F4502DA17F1040F04DAE2
:10086000012082460FE06D1EEEE7002F02DCED1B3B
:100870003E4403E0781CA84200DD7D1CB81B00F15B
:10088000010A4FF000472078000703D4AA4501DB96
:100890004FF0FF3A0021B7F1004F0DF143088DF8FA
:1008A000431024D002202B23002F01DA7F422D2376
:1008B0000A21021EA0F1010000DC5FB197FBF1FCF0
:1008C00097FBF1F201FB1C7C17460CF1300C08F889
:1008D00001CDEEE7A8F1010003702188090501D5DB
:1008E000452100E06521A0F1010800F8011C0998EC
:1008F0000FA9A1EB0807FF1D00B10120411901EB71
:10090000EA70A1693844081A401EA0612078C00628
:1009100002D42046FFF792FC099828B1D4E90121BE
:100920009047206A401C20622078C00622D52046CD
:10093000FFF784FC1EE0002E04DBB34502DD01A8B6
:10094000805D00E03020D4E901219047206A401CFE
:100950002062761CAAF101005FEA000A0AD100F0C9
:100960008FF8C0680168405CD4E901219047206A93
:10097000401C2062281EA5F10105DCDC07E0D4E95B
:10098000012118F8010B9047206A401C2062381E94
:10099000A7F10107F3DC2046FFF766FC032011B046
:1009A00043E6000001694A1C02610878704700B5FF
:1009B0008FB0CDE901310021059105497944CDE998
:1009C000031011466846FFF7C5FC0FB000BD0000DC
:1009D000E5FFFFFF0A6802F8010B0A60704710B5D7
:1009E000436913B1AFF3008001E0FFF74EFC012033
:1009F00010BD127800F124010A7000224A70012211
:100A0000EDE711684FF0FF32E9E70000074B70B5E2
:100A10000D467B44FFF7CBFF0446284600F028F93B
:100A200010B14FF0FF3070BD204670BDE7270000C9
:100A30004FF0000200B5134694469646203922BF77
:100A4000A0E80C50A0E80C50B1F12001BFF4F7AFC2
:100A5000090728BFA0E80C5048BF0CC05DF804EBA4
:100A6000890028BF40F8042B08BF704748BF20F812
:100A7000022B11F0804F18BF00F8012B70470000C7
:100A800000487047F802002030B5B0F10A024FEA82
:100A9000900E71F100034EEA817EB0EB0E0061EB27
:100AA00091014FEA101E4EEA017E10EB0E0041EB61
:100AB00011114FEA102E4EEA016E10EB0E0041EBC1
:100AC00011214FEA104E4EEA014E10EB0E0041EBA1
:100AD0001141401841F100014FEAD00040EA417055
:100AE0004FEAD10110EB80054FEA810444EA90748B
:100AF00044EB01046D1944EB0404521BA3414FF075
:100B0000000348BF0A3200D530BD401C41F100014E
:100B100030BD00002DE9F0411F4604460326016860
:100B2000072A01F4006004DB08B116A505E016A54C
:100B300003E008B115A500E015A521F01000206024
:100B4000A069C01EA0610FB1401EA0612046FFF742
:100B500075FB4FB1D4E9012138469047206A401C0B
:100B60002062C01C206206E0206AFAE7D4E9012175
:100B700015F8010B9047761EF8D22046FFF774FB5C
:100B8000BDE8F0814E414E006E616E00494E460058
:100B9000696E66002DE9F047814616468AB03348F3
:100BA00078440DC88DE80D0030487844801C03ACB3
:100BB0000DC884E80D0041F69B300844372190FBB6
:100BC000F1F290FBF1F5A5F1800501FB12041B3C4D
:100BD00002D56442012000E00020DFF890A08046AA
:100BE0000027FA44AAF1BE0A0DE0E00709D0324618
:100BF000684607EB47010AEB810101F026F88DE812
:100C0000070064107F1C002CEFD1184F7F44AC3FCD
:100C100018E0E80714D007EB04100DF1180A90E86B
:100C20000E008AE80E00C068F04201D198190890C1
:100C3000324606A903A801F008F803AB83E80700D1
:100C40006D10641C002DE4D132466946B8F1000FE6
:100C500003A802D000F0E5FF01E000F0F6FFC9E9CB
:100C60000001C9F808200AB0BDE8F087B0380000DC
:100C7000007B00F08000704710B542485421FFF718
:100C8000D7FE41485421FFF7D3FE40485421FFF7D7
:100C9000CFFE3F493B483C4A3F4B08603D490A6014
:100CA0003A491960531C0365481C1065012008650A
:100CB0003B48344A39A1784400F00CFA20B938484E
:100CC00078440A3800F0A8FA37482F4A35A178440A
:100CD00000F000FA20B9344878440A3800F09CFA51
:100CE00032482A4A2FA1784400F0F4F920B92F485D
:100CF00078440A3800F090FA40232248DC000021B2
:100D0000224600F0C4F920B125487844543800F058
:100D100083FA1D4822464023002100F0B8F920B193
:100D200021487844543800F077FA184822461023B6
:100D3000002100F0ACF9002806D01C487844BDE83A
:100D40001040563800F068BA10BD104870B5006DFC
:100D500020F001040B4800F033FA0B4800F030FAA1
:100D60000A4800F02DFA09E0206D20F00105204628
:100D700000F026FA204600F078F82C46002CF3D13B
:100D800070BD0000DC010020300200208402002041
:100D90006000002064000020680000207200000055
:100DA000B2370000770000009E3700008A3700004D
:100DB0000EB5CDE9000100F007FC02906946012064
:100DC000ABBE0EBD08B5694600900220ABBE08BDA3
:100DD0001FB58DE8070069460520ABBE04B010BD05
:100DE0001FB58DE80F0069460620ABBEF6E708B5D3
:100DF000694600900920ABBE08BD1CB5CDE90001D5
:100E000069460A20ABBE1CBD704708B56946009014
:100E10000C20ABBE08BD000000487047D80200207F
:100E20007546FFF7F9FFAE4605006946534620F0C8
:100E30000700854618B020B5FFF7CEF9BDE8204081
:100E40004FF000064FF000074FF000084FF0000B86
:100E500021F00701AC46ACE8C009ACE8C009ACE839
:100E6000C009ACE8C0098D46704770B50446051F3F
:100E700000F01CFA0068002C14BF446870BD002C00
:100E800018BFAC423CBF20466468F8D301680A181A
:100E9000AA4218BF456003D12A6805461144016083
:100EA00028684119A1421CBF6C6070BD616869600F
:100EB00021680844286070BD2DE9F04705460C46BE
:100EC000C86820F4201040F48000C860800602D575
:100ED000084600F038FBE06841F282014FF0FF392C
:100EE0000140022903D0204600F0D6FAB5E000F414
:100EF0002041B1F5004F0FD1C00306D56168E06A0B
:100F0000884200D80846606006E02069E0626060C0
:100F10006069FFF77AFFA061A0680022EEB20028A6
:100F20000DDAE1688B050AD4C043A06041F490302B
:100F30002260E0606068411C61600670A5E0E068C6
:100F40009046226040F40050E060206968BB606910
:100F5000FFF74DFF012704F12405A0B1A08910F48B
:100F6000407F08D0E06900F0ECF9206118B1E0683A
:100F700040F4006016E0E7612561E06820F440700D
:100F800040F480600EE0E06900F0DBF900282061A9
:100F9000F1D0E06840F4006010F4407FE06002D1DE
:100FA00040F48070E06020696060E06825696FF05F
:100FB000010AC1051FD56168E06A884200D8084669
:100FC000411B04D02246284600F070FAF0BBE068CE
:100FD000010203D5E562C4E9015854E0691CE162ED
:100FE0006160E16940F48030491EC4E90210304676
:100FF0002E70BDE8F087010202D500F480320AE0CD
:101000006068411C61600670E0680A2E40F4803020
:10101000E06006D00022E16A6068814203D90B4695
:1010200002E00122F7E70346A7895B1B7F0503D493
:10103000E7699F4200DDE2B1814200D80146E562E6
:101040000F1AC4E90158002B09DD00E005E0224633
:101050001946284600F02AFA08B14846C9E747B1C0
:10106000A069E5626560C01BA061E06840F0100007
:10107000E060E068000208D56168A069E562491B8C
:1010800008446560A0615046B3E73046B1E770B5EB
:10109000C468A50713D0650211D4B2F5807F09D0CA
:1010A000B2F5007F06D0B2F5806F08D1012300F1C0
:1010B000240106E05D1E6FF07F46B54201D301209A
:1010C00070BD0161C361416024F470611143C1606E
:1010D000002070BD2DE9F0410C460746164610462B
:1010E00000F06EF82078611C61280AD0722802D0C6
:1010F00077283CD102E00125002405E002250424E4
:1011000002E0082448F2020511F8010B2B2806D052
:10111000622809D011F8010C74280AD00BE045F0C0
:10112000030544F00204EFE745F0040544F0010430
:10113000EAE744F0100438462146FFF739FE411C27
:1011400015D00021316171604FF40071F560F161DB
:101150007061200704D530460222002100F020F9FA
:10116000306D40F0010030653046BDE8F081002070
:10117000FBE72DE9F0410D460646104C206DC107F6
:1011800004D0410804D020F00104F7E722460EE025
:10119000542000F0D6F807000ED0206D47F0010172
:1011A0000843542120653846FFF742FC3A46294659
:1011B0003046BDE8F0418DE70020D6E7DC01002095
:1011C0002DE9F04704464FF000094FF0FF37C5689E
:1011D000D4E90486A80707D0204600F091F93046EC
:1011E000FFF7F0FD002802DA3846BDE8F087280551
:1011F00002D54046FFF739FE4C212046FFF718FC88
:10120000206D20F0010020654846EEE70446AFF36C
:1012100000802046FEF7CCFF10B500F0BBF9BDE81A
:10122000104000F0B1B900004FF0013C50F8042B21
:1012300051F8043B9A4221D1A2EB0C03934313EAE9
:10124000CC1317D150F8042B51F8043B9A4215D116
:10125000A2EB0C03934313EACC130BD150F8042BED
:1012600051F8043B9A4209D1A2EB0C03934313EAD1
:10127000CC13DBD04FF00000704700BFD01A01BA8A
:10128000B1FA81F101F0180122FA01F0CB40C1F16D
:101290002001DBB2C0B2C01A2CFA01F3D11A91437B
:1012A00011EAC311E6D1704770470000004870474B
:1012B000E0020020704770477047704738B5044619
:1012C0000A4600206946AFF30080002808BF38BDF9
:1012D00002460099204600F0A4F9012038BD012003
:1012E00000F0F3B9F8B5AFF30080054600200C46D6
:1012F000102000BF0646A819A0420DD93246694603
:101300000020AFF30080070008BF00F0DEF900986E
:10131000A04218BF0546C419FFF7C8FF056007467D
:10132000F01D20F007004619284600F073F9B4427A
:1013300008BFF8BDA21B31463868BDE8F84000F090
:1013400070B970B50646FFF7B1FF056806F10B00EE
:1013500020F00704B4429CBF002070BD2B466A6891
:10136000BAB11068A04210D304F1080188423CBF12
:101370005068586007D35168101941601168091B03
:10138000016058601460101D70BD13465268002A39
:10139000E7D121462846FFF791FF0028DED170BD36
:1013A0002DE9F041044616460D464769007B80074B
:1013B0002ED03846FFF71BFD50BB3EB3012E02D0A6
:1013C000022E25D104E0204600F045F905441DE039
:1013D0003846FFF71AFDE168002841F01001E1608E
:1013E00005DA204600F058F80120BDE8F081C90375
:1013F0000BD56268E16A914200D81146A269114496
:101400002269891A814200DD08460544002D01DA6F
:101410000220EAE7E16A6068E268814206D291034D
:10142000E06203D522F4003141F01002A6690027E2
:10143000AE4213DCE16A814201D90B4600E003466B
:1014400003EB060C2369ACEB030CAC4506DD8142D3
:1014500001D98C4600E084469C4505D1A7602760F1
:1014600042F02000A5620DE0AD1BE669AE1B814293
:10147000A66000D90846C01A281A20605819606072
:1014800022F0200003490840E060002084F8487002
:10149000ABE70000BFCFD7FFC16821F4001141F0D6
:1014A0008001C16000218160016070472DE9F04733
:1014B000814614460E464FF0FF383248D5685769CA
:1014C000054209D03846A169FFF797FC002811DBD7
:1014D0002C48C0430540E5602B4632464946384615
:1014E000FFF776FCA16920F00042B21A11440028EF
:1014F000A16103D02046FFF7CFFF4046BDE8F0874B
:1015000070B504460569C06A6168884200D808461B
:10151000E16821F42011E160C90312D5A84208D086
:101520002246411B2846FFF7C1FF10B14FF0FF30A4
:1015300070BD0020E562C4E90150E06820F480300D
:10154000E060002070BD10B50446C06820F02000A7
:10155000E060A16AA06988420DD02046FFF7D0FF65
:10156000E06820F4405040F01000E060A06AA06104
:101570002069E062606044F24001E0688843E06016
:1015800010BD000010000200002801D000F03CB89F
:101590007047000010B5014602A000F07DF8012060
:1015A00010BD000053494752545245443A205265F9
:1015B0006469726563743A2063616E2774206F708A
:1015C000656E3A200000000010B5431C02E010F8E0
:1015D000011B71B18107FAD14FF0013202C88C1A98
:1015E0008C4314EAC211F9D0C01A0A0603D0C01EF7
:1015F00010BDC01A10BD0A0401D0801E10BD090222
:10160000FCD0401E10BD000001491820ABBEFEE713
:101610002600020000210160C0E90110704710207F
:101620007047034640688C46002818BF88423CBF7C
:1016300003464068F8D318681844884207D00CF174
:10164000030020F00700001D411A521A0146081D30
:101650000A60FFF70ABC10B50146C268900703D0C4
:10166000900607D5886A0AE000F03EF80121016083
:10167000881E10BD8B69486818440B69C01A91F820
:1016800048301BB191F84910401A10BD1103FCD528
:101690000028FADD401E10BD70B505460C460A2034
:1016A00000E06D1C00F018F835B128780028F8D15A
:1016B00002E0641C00F010F814B120780028F8D182
:1016C000BDE870400A2000F007B810B500F010F82F
:1016D000BDE81040FFF758BF08B569468DF8000017
:1016E0000320ABBE08BD000000487047D8020020B0
:1016F00010B5012805D0002103A0FFF7CDFF012080
:1017000010BD09A1F8E7000053494752544D454D1B
:101710003A204F7574206F662068656170206D6592
:101720006D6F7279000000003A2048656170206D8D
:10173000656D6F727920636F727275707465640085
:101740005FEA400C08BF91F0000F4FEA8C234FEA8C
:10175000C12243EA51514FEA1C5018BF00F5F04036
:101760004FEA300018BF41F000415FEA6C5C00F0C6
:101770002980BCF1FF3F08BF40F080407047130C48
:1017800006BF12044FF0100C4FF0000C130E04BFF4
:1017900012020CF1080C130F04BF12010CF1040C1F
:1017A000930F04BF92000CF1020CD30F04BF520040
:1017B0000CF1010C11464FF00002A0F11F00A0EB4C
:1017C0000C00704711F0004F08BF704731F0004126
:1017D0003FF4D5AF0B0C06BF09044FF0100C4FF0CF
:1017E000000C0B0E04BF09020CF1080C0B0F04BF18
:1017F00009010CF1040C8B0F04BF89000CF1020CE1
:10180000CB0F04BF49000CF1010CCCF12003A0EB7D
:101810000C0022FA03F302FA0CF241EA030100F190
:101820000100704720F07F4C80EA030023F07F47DF
:10183000ACEB070303F57C5300F0004003F1FF031A
:101840002DE980494FEA154B09B44FEA144325EAC4
:101850000B4E24EA03480FF2042606EB132749082F
:101860003E785FEA320203FB0667C7F5000707FB15
:1018700006F64FEA54374FEAD64606F1020607FB52
:10188000066CCCF1005C4FEA1C472CEA074C07FBC6
:1018900006F40CFB06F504EB15464FEA961634BF2A
:1018A00000204FF000404FEAD13706FB07FC4FEA1B
:1018B0001C4C0CFB0BF7D21B03FB0CF761EB070175
:1018C0000CFB0EF7B0EB074072EB17420CFB08F76E
:1018D00034BFA2EB0742B2EB074261EB17414FEA7C
:1018E0000C444FEA910706FB07FC4FEA1C4C0CFB2B
:1018F0000BF7B0EBC74072EB573203FB0CF734BF6A
:10190000A2EBC742B2EBC74261EB57310CFB0EF7BB
:10191000B0EBC70072EB57720CFB08F734BFA2EBB9
:10192000C702B2EBC70261EB5771039F4FEA8161B7
:1019300041EA921104EBCC044FEAD1374FEA8262BC
:1019400006FB07FC42EA90124FEA80604FEA1C4C0B
:101950000CFB0BF7D21B03FB0CF761EB07010CFB35
:101960000EF7B0EB074072EB17420CFB08F734BFE1
:10197000A2EB0742B2EB074261EB17414FEA8C55ED
:101980004FEA910704EB9C2406FB07FC4FEA1C4C32
:101990000CFB0BF7B0EBC74072EB573203FB0CF7B5
:1019A00034BFA2EBC742B2EBC74261EB57310CFB2D
:1019B0000EF7B0EBC70072EB57720CFB08F734BFA1
:1019C000A2EBC702B2EBC70261EB577115EB4C25D6
:1019D0004FEA816141EA92114FEA82624FEAD137C0
:1019E00042EA901206FB07FC44F100044FEA8060D3
:1019F0004FEA1C4C0CFB0BF7D21B03FB0CF761EB03
:101A000007010CFB0EF7B0EB074072EB17420CFB23
:101A100008F734BFA2EB0742B2EB074261EB174174
:101A200015EB1C154FEA813141EA92414FEA8232AF
:101A300042EA90424FEA80304FEA0C7644F10004CB
:101A400048EA03434EEA0B484FF0000EB2EB080C95
:101A500071EB030724BF624639464EEB0E0E4FF082
:101A6000000B0018524149414BEB0B0BB2EB080C39
:101A700071EB03077BF1000B24BF624639464EEB46
:101A80000E0E4FF0000B0018524149414BEB0B0B6F
:101A9000B2EB080C71EB03077BF1000B24BF62462D
:101AA00039464EEB0E0E51EA020718BF46F001060A
:101AB00016EB0E7655F1000254F1000103D5BDE896
:101AC0008901BDE80088BDE88901BDE80048B61974
:101AD000524141EB0101A3F10103704780807F7EF9
:101AE0007D7C7B7A79787776767574737271717094
:101AF0006F6E6E6D6C6C6B6A6A6968686766666546
:101B00006464636362616160605F5F5E5E5D5D5CD3
:101B10005C5B5B5A5A595958585757565655555544
:101B20005454535352525251515050504F4F4F4EA4
:101B30004E4D4D4D4C4C4C4B4B4B4A4A4A494949F2
:101B40004848484747474746464645454544444434
:101B5000444343434342424242414141002B26D445
:101B6000770021D01CB54FEA370703B44FF01000BF
:101B70004FF010014FF000000FBCBDE810400BF11A
:101B8000010BBBF1010F08BF5FEA170722BF12F17B
:101B9000010211F101014FF0004143F1000300F097
:101BA000004043EA00007047F9D35708DAE746EAF5
:101BB000064613F1400F4FEA16461FDD13F1200FC2
:101BC000DFBF16430A46002120335B42C8D0C3F171
:101BD000200746EA064602FA07F74FEA164646EAA3
:101BE0000706C3F1200722FA03F201FA07F721FAE8
:101BF00003F14FF0000342EA0702B1E746EA0206AA
:101C000046EA06464FEA164646EA0106BCBF46EAE1
:101C10000646360C4FF000034FF000024FF0000173
:101C20009EE72DE9C048934630B491E8380007C8D4
:101C300031EA400C48BF34EA430C03D5FFF7F2FD0C
:101C4000FFF78CFFF0BCBDE800882DE9C048934643
:101C500030B491E8380007C810F0804F08BF13F087
:101C6000804F03D100F005F8FFF778FFF0BCBDE826
:101C7000008820F07F4780EA030023F07F4C07EBC9
:101C80000C03A3F57C5300F00040A3F1FE0392F097
:101C9000000F00F0B38095F0000F00F077802DE981
:101CA00001494FEA11404FEA144621EA004800FB7F
:101CB00006FC24EA064708FB06F607FB08F800FBCB
:101CC00007F718EB06484CEB164C4FEA124B18EB93
:101CD00007484FEA15464CEB174022EA0B4E0BFB28
:101CE00006FC25EA06470EFB06F607FB0EFE0BFB7D
:101CF00007F71EEB064E4CEB164C4FF000061EEBA2
:101D0000074E4CEB174B18EB0B0840F1000018EB9B
:101D10000E0B58EB000840F100008F1A4FF0000145
:101D20003CBFC943661B14BFB5EB040C00213CBF8C
:101D3000C943F61B4FEA17444EEA8E0E27EA0445C4
:101D40004FEA1C4704FB07622CEA074C05FB07F728
:101D50000CFB05F604FB0CFC16EB074642EB1742A6
:101D600016EB0C4642EB1C421BEB060658EB02023C
:101D7000414146EA9E0601D5BDE80189B6195241A6
:101D800041EB0101A3F10103BDE801894FEA1445CC
:101D90004FEA114724EA054621EA074C05FB07F400
:101DA00006FB07F70CFB06F105FB0CFC11EB0741EA
:101DB00044EB17444FEA124711EB0C4144EB1C442F
:101DC00022EA074C05FB07F206FB07F70CFB06F6B9
:101DD00005FB0CFC16EB074642EB174216EB0C46D4
:101DE00042EB1C456A1854F1000148BF7047B61910
:101DF000524141EB0101A3F10103704795F0000F3F
:101E000037D04FEA11424FEA144721EA024624EA4A
:101E1000074C02FB07F106FB07F70CFB06F402FB7D
:101E20000CFC14EB074441EB17414FEA154714EB48
:101E30000C4441EB1C4125EA074C02FB07F506FB6D
:101E400007F70CFB06F602FB0CFC16EB074645EB0E
:101E5000174516EB0C4645EB1C42121951F10001D7
:101E600048BF7047B619524141EB0101A3F101038C
:101E700070474FEA14454FEA114724EA054621EA24
:101E8000074C05FB07F106FB07F70CFB06F24FF0CA
:101E9000000605FB0CFC12EB074241EB174112EB6D
:101EA0000C4251EB1C4148BF7047921841EB0101B5
:101EB000A3F10103704700BFFEE7000008B5012150
:101EC000082000F069FC4FF40070ADF8000010200D
:101ED0008DF8030003208DF802006946044800F0E5
:101EE000E2F84FF40071024800F0BFF908BD0000AD
:101EF000000C014010B500242948006820F0F000D3
:101F0000274908600846006840F03000086049151D
:101F10002348001F00F0A7F940F2EE2001F03EF840
:101F20004FF400711E48001F00F09FF90F2001F0D0
:101F300035F81B48006820F0F00019490860084691
:101F4000006840F08000086002E0012001F026F8FF
:101F50004FF400711248001F00F078F920B12046BC
:101F6000611CCCB2C828F0DBC82C01DB012010BDFD
:101F7000002402E0012001F011F84FF4007108483C
:101F8000001F00F063F920B92046611CCCB2F02894
:101F9000F0DBF02C01DB0120E9E70020E7E700009F
:101FA000040C014070B50024002535E064101C4885
:101FB000006820F0F0001A4908600846006840F008
:101FC0003000086049151648001F00F04CF9022047
:101FD00000F0E4FF4FF400711148001F00F045F9D4
:101FE0000F48006820F0F0000D49086008460068BE
:101FF00040F0800008600C2000F0D0FF4FF400712A
:102000000748001F00F022F908B144F080043C208A
:1020100000F0C4FF681CC5B2082DC7DB204670BDA8
:10202000040C014070B504461D48006820F0F00023
:102030001B4908600846006840F030000860012530
:102040002AE004F00106641096B14FF400711448C0
:10205000001F00F008F9022000F0A0FF4FF400710B
:102060000F48001F00F001F93C2000F097FF11E03D
:102070004FF400710A48001F00F0F5F83C2000F012
:102080008DFF4FF400710648001F00F0EEF80220AB
:1020900000F084FF681CC5B2082DD2DD70BD0000C1
:1020A000040C014070472DE9F0410246002500264E
:1020B000002000230024002791F803C00CF00F0536
:1020C00091F803C00CF0100CBCF1000F03D091F894
:1020D00002C04CEA050591F800C0BCF1000F31D0F8
:1020E000146800202BE04FF0010C0CFA00F3B1F85B
:1020F00000C00CEA03069E4220D183004FF00F0C73
:102100000CFA03F7BC4305FA03FC4CEA040491F80B
:1021100003C0BCF1280F06D14FF0010C0CFA00FCF3
:10212000C2F814C00AE091F803C0BCF1480F05D111
:102130004FF0010C0CFA00FCC2F810C0401C08283B
:10214000D1D31460B1F800C0BCF1FF0F34DD546886
:1021500000202EE000F1080C4FF0010808FA0CF303
:10216000B1F800C00CEA03069E4221D183004FF073
:102170000F0C0CFA03F7BC4305FA03FC4CEA040409
:1021800091F803C0BCF1280F05D100F1080C08FA42
:102190000CF8C2F8148091F803C0BCF1480F07D1C5
:1021A00000F1080C4FF0010808FA0CF8C2F8108092
:1021B000401C0828CED35460BDE8F081F0B50A4633
:1021C000002300240021002500F00046B6F1004F56
:1021D00002D11D4EF16901E01B4E7168C0F3034549
:1021E00083B200F44016B6F5401F08D121F07061AB
:1021F000154E766826F07066134F7E6012E000F48C
:102200008016B6F5801F06D1032606FA05F4A14311
:1022100041F0706106E0460D360103FA06F6B1435F
:1022200041F0706122B1460D360103FA06F63143E2
:1022300000F00046B6F1004F02D1034EF16101E01B
:10224000014E7160F0BD0000000001400246002018
:1022500093680B400BB1012000E00020704701465D
:10226000C86880B270474161704701617047C160C2
:1022700070472DE9F04306464FF0000C002700247C
:102280001FE0002215E031F8129002F1010831F848
:102290001880C14509DD02F1010831F8185031F804
:1022A000129021F8189021F8125002F1010808F05C
:1022B000FF02C4F110089045E5DC04F1010808F0C4
:1022C000FF04102CDDDB0A2306E031F813804744BD
:1022D00003F1010808F0FF03102BF6DBA6EB0C0856
:1022E000A8EB07084FF00A09B8FBF9F0BDE8F08346
:1022F00000B55C48007801287ED15B480078FF2853
:1023000031D1594890F8410078B9584800780028F0
:1023100005DD56480078401E5449087012E05248C6
:1023200090F84100524908700CE04F4890F8410085
:10233000322804DD4C4890F841004D4908700720D0
:102340004A490870484890F84700C0B9464890F894
:102350004800A0B947480078002805DD45480078C6
:10236000401E4449087079E03F4890F847004249D0
:1023700008703D4890F84800404908706EE0102011
:102380003C490870384890F847008C2808DD3648EA
:1023900090F847008C38C0F18C003749087026E06F
:1023A000314890F847003649364A127821F8120031
:1023B00008463449097830F811003349096808445F
:1023C000314908602F480078401C2E4908700846A3
:1023D000007810280BDB0020087029492A48006883
:1023E000FFF747FF244908700020274908601E486E
:1023F00090F848005A2800E033E008DD1A4890F8C9
:1024000048005A38C0F15A001C49087026E01648A6
:1024100090F848001D491E4A127821F8120008461B
:102420001B49097830F811001A490968084419490C
:10243000086017480078401C154908700846007865
:1024400010280BDB00200870104912480068FFF7C5
:1024500010FF0A49087000200E4908600020014959
:10246000087000BD58000020BC000020380000208B
:102470001400002039000020170000201800002060
:102480007C0000203A000020300000209C0000204A
:102490003B0000203400002000BFFEE708B501210A
:1024A0000D2000F079F901210F48FFF787FE4FF466
:1024B000E040ADF8000048208DF8030069460B4865
:1024C000FFF7F1FD4020ADF8000010208DF803006B
:1024D00003208DF8020069460448FFF7E4FD40211F
:1024E0000248FFF7C0FE08BD00023000000C0140AA
:1024F00010B5012000F068F8052000F029FD10BD9E
:1025000008B50121142000F047F9FF20ADF80000C4
:1025100010208DF8030003208DF8020069461E4844
:10252000FFF7C1FD4FF46040ADF8000010208DF8BA
:10253000030003208DF8020069461848FFF7B3FD39
:10254000382000F041F8052000F002FD382000F0AE
:102550003BF8052000F0FCFC382000F035F80520A1
:1025600000F0F6FC082000F02FF8052000F0F0FC49
:10257000012000F029F8052000F0EAFC062000F018
:1025800023F8052000F0E4FC0C2000F01DF80520E5
:1025900000F0DEFC08BD0000000801400010014012
:1025A00070B504460D4616462DB904F18001C8B237
:1025B00000F00AF804E004F1C001C8B200F004F829
:1025C000304600F033F870BD70B504460020144961
:1025D0000860012000F0E2FC00201249C1F8B801B7
:1025E000012000F0DBFC01200D490831086000F0FB
:1025F000D5FC0D48FFF733FE00F47F46204600F07F
:1026000087F9304485B229460748FFF730FE642039
:1026100000F0C4FC00200349C1F8BC0170BD0000FB
:10262000B4012242000022420008014070B5044675
:1026300001201349086000F0B1FC00201149C1F8E5
:10264000B801012000F0AAFC01200D490831086002
:1026500000F0A4FC0C48FFF702FE00F47F46204681
:1026600000F056F9304485B229460748FFF7FFFDD0
:10267000642000F093FC00200249C1F8BC0170BD49
:10268000B4012242000022420008014070B5054614
:102690000E4614462EB905F18001C8B2FFF794FF2B
:1026A00004E005F1C001C8B2FFF78EFF03E0207817
:1026B000FFF7BCFF641C20780028F8D170BD00BF74
:1026C000FEE7704710B54FF4A06000F039F810BD78
:1026D00070B5002100230F22C47804B3154C246880
:1026E00004F4E064C4F5E064210AC1F10403CA40C3
:1026F000447804FA03F184781440214309010E4C14
:102700000678A155047804F01F050124AC40057833
:102710006D11AD0005F1E025C5F8004109E0047830
:1027200004F01F050124AC40044D0678761145F8ED
:10273000264070BD0CED00E000E400E080E100E028
:1027400002490143024A1160704700000000FA0587
:102750000CED00E07047000029B1064AD26902433F
:10276000044BDA6104E0034AD2698243014BDA6127
:10277000704700000010024029B1064A1269024366
:10278000044B1A6104E0034A12698243014B1A6147
:10279000704700000010024029B1064A92690243C6
:1027A000044B9A6104E0034A92698243014B9A61A7
:1027B000704700000010024029B1064AD268024367
:1027C000044BDA6004E0034AD2688243014BDA60CA
:1027D000704700000010024030B5002100220024A4
:1027E00000232D4D6D6805F00C0121B1042905D0A1
:1027F000082923D105E0294D056022E0274D056019
:102800001FE0254D6D6805F47012234D6D6805F4C9
:102810008034022505EB92421CB9214D55430560D9
:102820000BE01D4D6D6805F400351DB11C4D554381
:10283000056002E0194D5543056002E0174D056043
:1028400000BF00BF144D6D6805F0F0010909154D7A
:102850006B5C0568DD4045600F4D6D6805F4E06117
:10286000090A104D6B5C4568DD4085600A4D6D6856
:1028700005F46051C90A0B4D6B5C4568DD40C560CD
:10288000054D6D6805F44041890B074D6B5CC568CB
:10289000B5FBF3F5056130BD0010024000127A006F
:1028A00000093D0000000020100000202DE9F05F2D
:1028B0004FF0000AD346FFF71DFBCC20FFF7B2FB19
:1028C0004420FFF7AFFBFFF715FBCC20FFF7AAFB77
:1028D000BE20FFF7A7FBFFF765FB8146FFF762FB12
:1028E000044600BF49EA04200FFA80FA504601F07E
:1028F0000DFA07460022054B01F05CFA054601F08F
:102900001FF983465846BDE8F09F00000000B03F25
:1029100010B502460021002000BF0AE042FA01F390
:1029200003F00103C1F10704A3400344D8B24B1CD8
:10293000D9B20829F2DB10BD704710B500F002F8DB
:1029400010BD00000CB500200190009033480068D5
:1029500040F480303149086000BF3048006800F41E
:10296000003000900198401C0190009818B901981F
:10297000B0F5A06FF1D12948006800F4003010B123
:102980000120009001E0002000900098012843D130
:102990002348006840F0100021490860084600689C
:1029A00020F0030008600846006840F0020008605C
:1029B0001A48406819494860084640684860084617
:1029C000406840F4806048600846406820F47C100D
:1029D00048600846406840F4E810486008460068CF
:1029E00040F08070086000BF0C48006800F0007084
:1029F0000028F9D00948406820F0030007494860E2
:102A00000846406840F00200486000BF0348406844
:102A100000F00C000828F9D10CBD000000100240A5
:102A200000200240042808D14FF0E021096941F05C
:102A300004014FF0E022116107E04FF0E021096945
:102A400021F004014FF0E02211617047704700004F
:102A500010B51348006840F00100114908600846AD
:102A60004068104908400E494860084600680E4911
:102A700008400B4908600846006820F48020086080
:102A80000846406820F4FE0048604FF41F0088604C
:102A9000FFF753FF4FF000600449086010BD0000CD
:102AA000001002400000FFF8FFFFF6FE08ED00E016
:102AB00010B540F22551104800F03BF9A8B10E487E
:102AC00000F0F2F90D490E4A126888540C4800686B
:102AD000401C0B49086008460068572805D90120AA
:102AE0000849087000200649086040F22551024854
:102AF00000F0A9F810BD000000380140BC00002023
:102B0000540000205800002010B540F22551134811
:102B100000F00FF990B112480068C82802D30020D5
:102B20000F4908600D4800F0BFF9C1B20C480268B7
:102B30000068401C0A4B18600A4881540821074865
:102B400000F0EAF8012803D10821044800F072F8E7
:102B500040F22551014800F076F810BD00480040D1
:102B60005C0000201401002010B586B0044601214D
:102B70000820FFF711FE01218804FFF7EDFD4FF457
:102B80000060ADF8000004208DF8030069461F487E
:102B9000FFF789FA4FF48060ADF8000003208DF84C
:102BA000020018208DF8030069461848FFF77BFAE9
:102BB00002940020ADF80C00ADF80E00ADF8100046
:102BC000ADF814000C20ADF8120002A9104800F076
:102BD000FFF8012240F225510D4800F0D4F8012100
:102BE0000B4800F03FF84FF4A060FFF7A9FD272045
:102BF0008DF8040001208DF805008DF806008DF891
:102C0000070001A8FFF764FD06B010BD000C0140ED
:102C10000048004010B504462146054800F049F937
:102C200000BF8021024800F077F80028F9D010BDDD
:102C30000048004001F40072B2F5007F00D100BFEF
:102C4000CA430280704710B50022002340F66A1480
:102C5000A14200D100BF0A1201249440A3B2DC4378
:102C6000048010BD21B1828942F40052828104E0C7
:102C700082894DF6FF731A408281704710B5044671
:102C80002048844209D101218803FFF795FD0021E6
:102C90004FF48040FFF790FD32E01B48844209D199
:102CA00001214804FFF768FD00214FF40030FFF7D1
:102CB00063FD25E01548844209D101218804FFF70E
:102CC0005BFD00214FF48020FFF756FD18E010480F
:102CD000844209D10121C804FFF74EFD00214FF4C1
:102CE0000020FFF749FD0BE00A48844208D101218A
:102CF0000805FFF741FD00214FF48010FFF73CFD70
:102D000010BD000000380140004400400048004071
:102D1000004C00400050004002460020B1F5007F0A
:102D200000D100BF13880B400BB1012000E0002050
:102D3000704770B50246002400230025002040F6AD
:102D40006A16B14200D100BFC1F3421501F01F0362
:102D5000012606FA03F3012D02D19689334006E0DD
:102D6000022D02D1168A334001E0968A33400C12BC
:102D7000012606FA04F41688344013B10CB1012080
:102D800000E0002070BDF0B50346002400260025B9
:102D9000002040F66A17B94200D100BF1846C1F3BF
:102DA000421401F01F06012707FA06F5012C01D194
:102DB0000C3004E0022C01D1103000E014301AB1C4
:102DC00007682F43076002E00768AF430760F0BD64
:102DD0002DE9F04786B005460E460024A24600BF06
:102DE000A1460027B08900B100BF2F462C8A4CF6BF
:102DF000FF700440F08804432C82AC894EF6F31037
:102E00000440B08831890843718908430443AC8188
:102E1000AC8A4FF6FF400440B0890443AC8201A85D
:102E2000FFF7DAFC1F48874202D1DDF810A001E06D
:102E3000DDF80CA0A88900F4004040B10AEBCA00FC
:102E400000EB0A1031684900B0FBF1F807E00AEB2B
:102E5000CA0000EB0A1031688900B0FBF1F8642069
:102E6000B8FBF0F004012009642101FB1089A88956
:102E700000F4004040B1322000EBC900B0FBF1F09B
:102E800000F00700044308E0322000EB0910642141
:102E9000B0FBF1F000F00F0004432C8106B0BDE858
:102EA000F08700000038014001468888C0F3080020
:102EB0007047C1F308028280704710B5044603E0F2
:102EC0002078FFF7A7FE641C20780028F8D110BDF9
:102ED00000BFFEE7490050EAC12018BF04204A0D98
:102EE00018BF40F0010040F2FF72B2EB515F08BF23
:102EF00040F00200012808BF0520704730380A283A
:102F000001D20120704700207047000010B56FF01B
:102F10000400FFF787FD0A4800680A49B0FBF1F09A
:102F2000094908700846007800EB4001C1EBC01069
:102F30004FF6FF7101EAC0000449088010BD00008F
:102F40003C00002000127A005000002052000020B7
:102F50000146114A12884A434FF0E0235A61002289
:102F60009A611A46126942F001021A6100BF4FF0DD
:102F7000E022106900F001021AB100F48032002A48
:102F8000F5D04FF0E022126922F001024FF0E02369
:102F90001A6100229A617047520000200146114ACE
:102FA00012784A434FF0E0235A6100229A611A4690
:102FB000126942F001021A6100BF4FF0E02210696D
:102FC00000F001021AB100F48032002AF5D04FF06F
:102FD000E022126922F001024FF0E0231A61002280
:102FE0009A6170475000002070B572480078092837
:102FF00022D2DFE800F0DD05223F668DA1B5C900D1
:103000006D4802786DA16F48FDF704F96D4A012102
:103010000420FFF73BFB6C48027868A16948FDF784
:10302000F9F8684A01210D20FFF730FBC620FFF7B1
:10303000CBFA0F20FFF7C8FABAE05F4802785FA129
:103040006048FDF7E7F85F4A01210420FFF71EFB07
:103050005D48027859A15B48FDF7DCF8594A012127
:103060000D20FFF713FBCF20FFF7AEFA0F20FFF77D
:10307000ABFA9DE05548006801F0BAF804462246D4
:103080000B4653A14F48FDF7C5F84E4A00210520D5
:10309000FFF7FCFA5048006801F0AAF804462246FF
:1030A0000B464BA14748FDF7B5F8464A01210520DC
:1030B000FFF7ECFA8820FFF787FA0F20FFF784FA72
:1030C00076E04248006801F093F8044622460B4639
:1030D0003FA13C48FDF79EF83A4A00210520FFF742
:1030E000D5FA3D48006801F083F8044622460B46B5
:1030F00037A13448FDF78EF8324A01210520FFF749
:10310000C5FAC820FFF760FA0F20FFF75DFA4FE01D
:10311000324803783248027832A12A48FDF77AF81B
:10312000284A01210320FFF7B1FAC520FFF74CFA26
:103130000F20FFF749FA3BE0284803782848027837
:1031400028A12048FDF766F81E4A01210320FFF759
:103150009DFAC920FFF738FA0F20FFF735FA27E06C
:1031600024480378244802781EA11648FDF752F837
:10317000144A01210320FFF789FAC520FFF724FA3A
:103180000F20FFF721FA13E01A4803781A48027853
:1031900014A10C48FDF73EF80A4A01210320FFF76D
:1031A00075FAC920FFF710FA0F20FFF70DFA00BFDC
:1031B00000BF70BD2C0000201500002025303364B6
:1031C000000000006C0000201600002024000020F9
:1031D00025342E3166000000280000201C0000204D
:1031E0001B000020253033642F253033646D6D487B
:1031F000670000001A000020190000208A68002AD9
:1032000001DCFDF759BE521E8A604A68C0B2531CE9
:103210004B601070704700002DE9F041FE480068D7
:1032200000287CD10A20FFF793FEFB4800680028A5
:10323000F7D100BFF84800680028FBD00020F6490D
:1032400068310860F5480078401CF4490870084669
:10325000007801280DD18821F1A0FCF7CFFFF1A261
:1032600000210846FFF712FAF3A201210020FFF720
:103270000DFAEA48007802281DD1F4A20021084680
:10328000FFF704FAF6A201210020FFF7FFF9DF2281
:1032900000210920FFF784F9432200210A20FFF7CB
:1032A0007FF9DF2201210920FFF77AF9432201216A
:1032B0000A20FFF775F9D948007803281DD1E3A249
:1032C00000210846FFF7E2F9E5A201210020FFF7FF
:1032D000DDF9DF2200210920FFF762F943220021F6
:1032E0000A20FFF75DF9DF2201210920FFF758F9D5
:1032F000432201210A20FFF753F9C8480078042827
:103300001FD1D2A200210846FFF7C0F9D4A20121A3
:103310000020FFF7BBF9DF220021092000E064E074
:10332000FFF73EF9432200210A20FFF739F9DF2297
:1033300001210920FFF734F9432201210A20FFF778
:103340002FF9B6480078052809D1CAA200210846FD
:10335000FFF79CF9CCA201210020FFF797F9AF48B5
:103360000078062809D1C3A200210846FFF78EF98C
:10337000C5A201210020FFF789F9A8480078072895
:1033800009D1C6A200210846FFF780F9BEA201219B
:103390000020FFF77BF9A1480078082809D1BFA2D7
:1033A00000210846FFF772F9B7A201210020FFF7BC
:1033B0006DF9FFF719FE99480078092815DB002000
:1033C000964908700C20FFF7FFF8FFF791F88A2163
:1033D00093A0FCF713FFDF2200210E20FFF7E0F897
:1033E000432200210F20FFF7DBF88B48001D006807
:1033F00000287DD16420FFF7ABFD8748001D0068E1
:103400000028F6D18548007801280AD1A84800781C
:10341000A8490978884204DAA5480078401CA449E4
:1034200008707E480078022808D1A2480078C82891
:1034300004DAA0480078401C9E490870774800785C
:10344000032814D19C4801689C48006800F008FFDC
:103450000DD29A48006800F0CBFE0646984A994B78
:1034600000F0A0FB044600F06BFB944908606B4839
:103470000078042817D19048006800F0B9FE04468F
:103480008F4A914B00F05AFC0DD28B48006800F037
:10349000AFFE06468A4A8B4B00F084FB044600F0E0
:1034A0004FFB854908605D48007805280AD18748A8
:1034B000007887490978884204DA84480078401CFB
:1034C000824908705548007806280AD1814800785A
:1034D00081490978884204DA7E480078401C7D4999
:1034E00008704E48007807280BD17948007800E032
:1034F00018E0B0F5967F04DA75480078401C7449EE
:1035000008704648007808280AD173480078704946
:103510000978884204DA70480078401C6E490870C7
:10352000FFF762FD3C4808300068002872D1642033
:10353000FFF70EFD3848083000680028F6D13748FC
:10354000007818B98A2136A0FCF758FE3348007875
:10355000012808D156480078002804DD5448007836
:10356000401E534908702D48007802280AD151485E
:1035700000784F490978884204DD4E480078401EA3
:103580004C49087025480078032817D14B4800683B
:1035900000F02EFE04460022134600F009FD0DD275
:1035A0004648006800F024FE0646454A454B00F0B8
:1035B00035FD044600F0C4FA404908601748007819
:1035C000042814D13D4801683B48006800F0C7FE5C
:1035D0000DD23948006800F00BFE0646384A394BD8
:1035E00000F01CFD044600F0ABFA334908600B48BC
:1035F0000078052808D135480078002804DD3348D4
:103600000078401E314908700448007806286DD1C2
:10361000304863E08AE069E0308121422C000020DC
:103620002563000020205365742048656172747220
:1036300061746520000000006D696E3A2020202032
:10364000206D61783A202020000000006D696E3AFC
:1036500020202020202020202020202000000000EA
:103660006D61783A2020202020202020202020205A
:103670000000000020536574204879706F74656EF7
:1036800073696F6E00000000202020202020202081
:1036900020202020202020200000000053657420DE
:1036A000487970657274656E73696F6E0000000012
:1036B0001500002016000020280000202400002013
:1036C0009A9999999999B93F99F958401B00002006
:1036D000190000201C0000201A000020007800289B
:1036E00004DD13480078401E114908701148007825
:1036F00007280AD11048007810490978884204DD6B
:103700000D480078401E0C4908700A4800780828C7
:103710000AD10B48007806490978884204DD084838
:103720000078401E06490870FFF75EFCBDE8F08196
:103730001C0000202C000020190000201B0000208D
:103740001A0000209EB04FF4967A0025002400262F
:10375000A146FFF7DBFBFEF7B5FF4FF4FA70FFF76A
:10376000F7FBFEF7CDFEFEF7A9FB4FF4164000F085
:1037700077F94FF41650FFF7F7F992A200210846A7
:10378000FEF784FF94A201210020FEF77FFF58215D
:103790009648FCF77BFE0020954908608A2195A099
:1037A000FCF72CFDFEF7A4FEFEF778FEFEF7A2FB69
:1037B000DF2200210E20FEF7F3FE432200210F201E
:1037C000FEF7EEFE58218948FCF760FE002088498C
:1037D0000860F5E0FFF720FD8748007800287DD1DC
:1037E0005046411C1FFA81FA1E2877DB4FF0000A71
:1037F00084F00104FEF77CFDFFF758F87F4908606C
:103800007F48007890B17E4800787E4909788842E8
:1038100005DA7B4800787C490978884206DC2CB1BF
:103820006FA200210846FEF731FF0AE074480278D3
:1038300076A17948FCF7EEFC774A00210846FEF7AE
:1038400025FF7648007888B17548007870B17348D4
:10385000007874490978884205DA7148007872491D
:103860000978884202DB4FF0010901E04FF00009BE
:103870006A48007880B16A48007868B16748007883
:103880006A490978884205DD654800786849097801
:10389000884201DC012600E0002616B9B9F1000FCC
:1038A00006D02CB14DA201210020FEF7EFFE0CE066
:1038B0005B480378594802785EA15748FCF7AAFC98
:1038C000554A01210020FEF7E1FE5E4801684B48A1
:1038D000006800F044FD08D95B4800E051E0016851
:1038E0004648006800F0BCFC06D82CB13DA200217F
:1038F0000A20FEF7CBFE19E04048006800F078FC93
:1039000007463A460B4651A14348FCF783FC424A1E
:1039100000210A20FEF7BAFEDF2200210E20FEF76A
:103920003FFE432200210F20FEF73AFE3448007884
:1039300058B13348007833490978884217DA30485B
:10394000007831490978884211DD3E4801682B48EA
:10395000006800F004FD0AD93B4801682748006868
:1039600000F07EFC03D916B9B9F1000F06D0394832
:103970000068C0433849C1F8980102E00020354989
:103980000860681C85B2502D17DB00251B480068B5
:1039900000F02EFC07468846214800781F49097828
:1039A000CDE90078CDE90210154802782B4905A829
:1039B000FCF730FC05A8FFF780FA0A20FFF7C8FAE9
:1039C00008E700002020206C6F6164696E672E2E6E
:1039D0002E20202000000000202020202020202059
:1039E000202020202020202000000000BC000020FB
:1039F00054000020256300002C000020200000203F
:103A00001400002016000020150000204865617297
:103A10003A253033640000006C00002017000020BD
:103A200018000020190000201A0000201B000020B0
:103A30001C000020253033642F253033646D6D4821
:103A400067000000280000202400002025342E31CB
:103A500066000000988121420080214278440008DD
:103A600010B586B00446012144F20500FEF794FE2D
:103A70002648FFF703F94FF40070ADF81400032057
:103A80008DF8160018208DF8170005A92048FEF7BC
:103A90000AFB4FF48060ADF8140004208DF8170085
:103AA00005A91B48FEF7FFFA25208DF8000000202D
:103AB0008DF8010001208DF802008DF803006846A2
:103AC000FEF706FE01940020ADF80800ADF80A00EC
:103AD000ADF80C00ADF810000C20ADF80E0001A9F7
:103AE0000A48FFF775F9012240F225510748FFF710
:103AF0004AF9002240F224410448FFF744F9012129
:103B00000248FFF7AFF806B010BD000000380140D2
:103B10000008014010B500290AD00878002807D015
:103B200005487844FDF780FB002801D0002010BD37
:103B30000248784410BD0000BA090000B209000034
:103B400021F00042A2F16052B2F5801F01F0004363
:103B500028BFD2F17F6C0BD95FEA001C43EAC20296
:103B600042EB507018BF704728BF20F0010070472B
:103B7000B2F5801FBCBF184670474FEA410C1CF5D8
:103B8000001F02D2084600F0E5BB70B500F0BCF99A
:103B900000000089FFF7F6BF4FF00040A0F580005D
:103BA0007047000010B591EA030F48BF83F000434F
:103BB00000F13C82841A71EB030C05D2121943EB1D
:103BC0000C03001B61EB0C01DFF824E14FEA1154F8
:103BD000A4EB135C1EEA430F18BF9EEA445F73D048
:103BE00023EA0E03DCF1200E21EA045143F4801392
:103BF00032D322FA0CFE10EB0E0023FA0CFE41EB3E
:103C00000E01CCF1200E03FA0EFE10EB0E0051F166
:103C10000001B1F5801FCCF1200E32D201EB04512E
:103C200012FA0EF2BDE8104058BF7047401C38BF72
:103C30005FEA420218BF7047002814BF20F001005D
:103C400041F100014FEA410313F5001F38BF7047EF
:103C5000A1F1C04100F0A6B9012A43EB0302ACF187
:103C6000200CDCF11F0E32BF4FF0000E23FA0CF3D4
:103C700010EB030041EB0451B4EB115FD0D0A1EB8A
:103C8000045101F5801149085FEA300001EB04514D
:103C90000ED350F1000038BF12FA0EFE08D1BDE875
:103CA0001040C9E7401C38BF5FEA4202CAD1C3E7EF
:103CB000BDE810404FEA410313F5001F38BF7047BD
:103CC000A1F1C04100F06EB99EEA445F08D011EA4C
:103CD0005E0FBDE8104004BF01F0004100207047B6
:103CE000BDE8104070B500F00FF900BF64FBBE3EA8
:103CF0000000E0FF491058BFC1F140415B1058BFC0
:103D0000C3F140438B42EFF30080704710F0004254
:103D100048BF4042B0FA80F310FA03F10AD0C3F171
:103D20001D0303F580634FEA415002EB035202EB9F
:103D3000D12170474FF000007047000051EA030C9A
:103D400017D41CF5801F58BFBCF5801F00F10680FA
:103D5000994218BF704708BF9042704707D711F5C6
:103D6000801F58BF13F5801F19D4994270478942AC
:103D700070471CF5801F08D5BCF5801FF7D58B4216
:103D800018BF704708BF824270474FF4001C1CEBFD
:103D9000410F38BF1CEB430F01D28B42704770B507
:103DA00000F0B2F8922449004FF000514FF08053D8
:103DB000FFF7A0BFDFF848C170B51CEA111E1EBF97
:103DC0001CEA13159EEA0C0F95EA0C0F00F06F80A9
:103DD00081EA030423EA4C134EEAD47E21EA4C1113
:103DE00041F4801143F48013AE44A1FB024CA0FBCC
:103DF0000365AEF17F7E361955EB0C05A1FB034C34
:103E00004CF10003A0FB021C16EB0C06654153F1BC
:103E10000003094218BF46F0010613F4007F0BD1DE
:103E20004FEA03314FEA0530340341EA155140EAC5
:103E300016506FF003020AE04FEAC3214FEAC52093
:103E4000F40241EA555140EA56506FF0020202EB8B
:103E50002E4201EB025585EACE710AD05FEA440C8E
:103E600018BF24F0004450F1000041F1000120EAA5
:103E7000D47040F2FE7C624500D270BDA84214BFEF
:103E80004FF080444FF04044002E08BF0024BEF1A4
:103E9000806FA8BFA1F1C041BDE8704080F2828070
:103EA0004FF0000001F1C04101F0004170479EEA6F
:103EB0000C0F0CEA131518BF95EA0C0F06D04FF043
:103EC000000081EA030E0EF0004170BD00F01CF806
:103ED0008900013E00F007B800F009B84FEA430C32
:103EE0005FEA5C5C08D081EA030100F05BB84FEA4E
:103EF000410C5FEA5C5CF6D14FF00000014970476D
:103F00000000FF070000F87F0EF1020E2EF0030EF6
:103F10005EF8046B364205D4012A43EB030515F520
:103F2000001F12D8012841EB010C1CF5001F0CD812
:103F30000ED14FEAD17C15F5001F0CEB4C0C0CF1A7
:103F4000020C08BF4CEBD37C04E04FF0080C01E0FE
:103F50004FEAD37C0CEB4C0526FA05F606F0070673
:103F6000B6F1040C06D20EEB860CBDE870404CF0A6
:103F7000010C6047DFE80CF0090B02024FF0004132
:103F80004FF00000A1F5002170BD19461046012830
:103F900051EB010418BFD4F5001484BF002001F0D8
:103FA000004170BD0808A0F500114FEA31017047CB
:103FB00053EA010C17D41CF5801F58BFBCF5801FB5
:103FC00000F106808B4218BF704708BF82427047DD
:103FD00007D713F5801F58BF11F5801F19D48B42E6
:103FE00070479B4270471CF5801F08D5BCF5801FA9
:103FF000F7D5994218BF704708BF904270474FF4F9
:10400000001C1CEB430F38BF1CEB410F01D299423F
:1040100070470FB40CBC03BCFFF7C1BE10B591EAEA
:10402000030F48BF83F000433FF5C4AD841A71EB22
:10403000030C07D212198CF0004C43EB0C03001B4D
:1040400061EB0C01DFF8A4E14FEA1154A4EB135C1F
:104050001EEA430F18BF9EEA445F00F0B08023EAD7
:104060006E03524221EA0451C3EB6E0338BF5B1E5C
:10407000DCF1200E25D322FA0CFE10EB0E0043FAE1
:104080000CFE41EB0E01CCF1200E03FA0EFE10EBFC
:104090000E0051F10001CCF1200E29D412FA0EF2DB
:1040A00001EB0451BDE8104058BF7047401C1CBFD5
:1040B000B2F1004F704700280CBF491C20F00100EE
:1040C000704712EB020E43EB030218BF4FF0010ED4
:1040D0004EEA4202ACF1200CDCF11E0E54D943FA38
:1040E0000CFE10EB0E0051F1FF31CCF11E0ED5D5B8
:1040F0000EF1010E12FA0EFE404141EB010101EBFF
:10410000445C5FEA5C5C10D910EBDE7001EB04519B
:1041100038BFBEF1004FBDE8104018BF70470028FF
:104120000CBF491C20F00100704730D24FEAD42C5C
:1041300011F5001124F400641BD0B1FA81F20B3A9E
:10414000A41AA41ED2F12003914030FA03F31943BC
:10415000904001EBCC71002C01EB0451BDE8104004
:10416000A8BF704701F1C0414FF0000001F00041CD
:104170007047B0FA80F310FA03F100D110BDE41AD1
:10418000173C4805C90AE4E701EB045110BD49108A
:1041900001EB0451BDE810404FEA300002E04FF05F
:1041A000000170474A0008BF0042F8D0B2F5001F76
:1041B00028BF704701F000414FF0000070479EEAB1
:1041C000445F07D011EA5E0FBDE8104004BF002134
:1041D00000207047BDE8104070B5FFF795FE00BFA6
:1041E00040DFF63E83F00041104670470000E0FFDC
:1041F00043004FEAD30C4FEA3C0C43401FBF40073B
:104200000CF1605113F0FE4F70471CF0006F03D1AA
:1042100000200CF0004170470CF0004343EA50705E
:1042200010B540EACC0000F04FF800BF000000924B
:104230004FEA0001FFF7B6BE4FF000414FF000001B
:10424000A1F500217047401058BFC0F1404049100F
:1042500058BFC1F140418142EFF300807047000038
:1042600050EA010C00F113801CF5000F58BFBCF59B
:10427000000F01D48842704707D710F5000F58BFD0
:1042800011F5000F15D488427047894270471CF51C
:10429000000F04D5BCF5000FF7D5814270474FF0F1
:1042A000807C1CEB400F38BF1CEB410F01D28142D8
:1042B000704710B500F008F8922449004FF0005004
:1042C0004FF08051FFF7BFBF0EF1020E2EF0030E2C
:1042D0005EF8044B244204D44FEA4102B2F17F4F0E
:1042E00011D84FEA4003B3F17F4F0CD80ED14FEAFB
:1042F000D07CB2F17F4F0CEB4C0C0CF1020C08BFE0
:104300004CEBD17C04E04FF0080C01E04FEAD17C8B
:104310000CEB4C0324FA03F404F00704B4F1040C8E
:1043200006D20EEB840CBDE810404CF0010C604747
:10433000DFE80CF0070802024FF00040A0F5800013
:1043400010BD0846420018BFD2F1807288BF00F04D
:10435000004010BDFF2141EAD050C005704751EA2E
:10436000000C00F113801CF5000F58BFBCF5000FC6
:1043700001D48142704707D711F5000F58BF10F5DF
:10438000000F15D481427047894270471CF5000F19
:1043900004D5BCF5000FF7D5884270474FF0807CFC
:1043A0001CEB410F38BF1CEB400F01D28842704715
:1043B00080EA010081EA000180EA0100FFF779BF8D
:1043C000FCF7B9B90400000800000000000000027A
:1043D000000100001000000002400000000000A0EA
:1043E0000000000005400000000000C800000000C0
:1043F0000C4000000000409C00000000194000003C
:104400000020BCBE0000000034400000BFC91B8E6D
:1044100000000004B5400000504BCFD06607E2CF4B
:10442000010000006C4100003E8251AADFEEA7347B
:1044300001000000D9420000DCB5A0E23A301F972D
:10444000FFFFFFFFB4450000FD25A0C8E9A3C14F51
:10445000FFFFFFFFFF3F00000000008000000000A2
:10446000FF3F000000000080000000003A7474006C
:104470003A7474003A747400486561727420526131
:104480007465CA3A25642C2054656D706572617438
:10449000757265C83A25342E3166A1E62C20426C2F
:1044A0006F6F64205072657373757265B93A2564D5
:1044B0002F25646D6D48670D0A000000F844000860
:1044C000000000206C00000028010008644500087E
:1044D0006C000020CC080000440100081C00000013
:1044E00043000000F8FFFFFF0C0000000E0000007A
:1044F0000F0000002E000000000000000102030475
:1045000001020304060708090204060800377800C0
:10451000008C5A5A3C000000000000000000A0413E
:104520000000164200000000000000000000000033
:104530000707000000A24A0400000000000000007D
:104540000102030406070809000000000000000043
:10455000000000000000000000000000000000005B
:044560000000000057
:04000005080000ED02
:00000001FF
